:020000040800F2
:10000000480900209D01000819070008B7060008EC
:1000100015070008590200085312000800000000EC
:10002000000000000000000000000000F5080008CB
:100030005D02000800000000A90700082D0A000862
:10004000B7010008B7010008B7010008B7010008B0
:10005000B7010008B7010008B7010008B7010008A0
:10006000B7010008B7010008B7010008B701000890
:10007000B7010008B7010008B7010008B701000880
:10008000B7010008B7010008B7010008B701000870
:10009000B7010008B7010008B7010008B701000860
:1000A000B7010008B7010008B7010008B701000850
:1000B000B7010008B7010008D50A0008B701000819
:1000C000B7010008B7010008B7010008B701000830
:1000D000B7010008510C0008B70100085D0D0008C9
:1000E000B7010008B7010008B7010008B701000810
:1000F000B7010008B7010008B7010008B701000800
:10010000B7010008B7010008B7010008B7010008EF
:10011000B7010008B7010008B7010008B7010008DF
:10012000B7010008B7010008B7010008B7010008CF
:10013000B7010008B7010008B7010008B7010008BF
:10014000B7010008B7010008B7010008B7010008AF
:10015000B7010008B7010008B7010008B70100089F
:10016000B7010008B7010008B7010008B70100088F
:10017000B7010008B7010008B7010008B70100087F
:10018000B7010008B7010008DFF80CD000F052F802
:10019000004800479D16000848090020064880478F
:1001A00006480047FEE7FEE7FEE7FEE7FEE7FEE75C
:1001B000FEE7FEE7FEE7FEE76D0A0008890100089A
:1001C000D2B201E000F8012B491EFBD27047002299
:1001D000F6E710B513460A4604461946FFF7F0FF46
:1001E000204610BD30B505462A460B4612F8010BD5
:1001F00013F8014B08B1A042F8D01CB1002802D07E
:100200006D1CF1E7284630BD30B50B460146002095
:100210002022012409E021FA02F59D4205D303FAC8
:1002200002F5491B04FA02F52844151EA2F1010249
:10023000F1DC30BD064C074D06E0E06840F00103FC
:1002400094E8070098471034AC42F6D3FFF7A0FFBC
:100250002C1800084C18000800BFFEE7704700008B
:1002600010B500244FF4FA63002209A109A000F0A0
:100270006BF800BF05E00B49085D00F03DFB601C1A
:10028000C4B2252CF7DB4FF47A7001F080F910BD71
:100290003E00000041542B43495053454E443D33EA
:1002A000370000001800002010B500244FF4FA6356
:1002B000002209A109A000F047F800BF05E00B49A2
:1002C000085D00F019FB601CC4B20A2CF7DB4FF488
:1002D0007A7001F05CF910BD3E00000041542B43E0
:1002E000495053454E443D31300000003D00002050
:1002F00010B50121094800F0DCF94FF47A7001F0E3
:1003000046F901E000F034F9C823002204A105A059
:1003100000F01AF80028F5D010BD000000080240D7
:100320004F4B00004154000010B50446012C04D18D
:100330004021044800F0BDF903E04021014800F0ED
:10034000B6F910BD001402402DE9F04106460C46F6
:1003500015461F462548B0F800046FF30E002349E8
:10036000A1F80004324622A1234800F013FE1CB974
:1003700015B90120BDE8F081B8B201F008F90020FC
:100380001A49B1F80014C1F30E01184A505411462D
:100390001AA000F0E7FFB4B1ADB121461348FFF752
:1003A00021FF08B1012000E0002040B929460F4894
:1003B000FFF718FF08B1012000E0002008B101207C
:1003C000D8E70020D6E744B121460848FFF70AFFE6
:1003D00008B10120CEE70020CCE729460348FFF70B
:1003E00001FF08B10120C5E70020C3E74401002058
:1003F00025730D0A0000000000480040257300002E
:1004000030B59FB004460D462B46224606A101A8F2
:1004100000F0B8FF41F65833002208A101A8FFF709
:1004200093FF1FB030BD000041542B43574A415049
:100430003D222573222C2225732200004F4B000001
:10044000F0B5B9B006460F4614461D46642120A8F3
:10045000FFF7BDFE16B1012E10D107E03B4614A2F6
:1004600014A120A8009400F08DFF08E03B4615A2DF
:1004700010A120A8009400F085FF00E000BF00BF9D
:10048000052D06DA20AB2A460FA102A800F07AFF5C
:1004900004E020AA11A102A800F074FF41F2883301
:1004A00012A214A102A8FFF74FFF39B0F0BD00005F
:1004B00054435000222573222C222573222C2573AD
:1004C000000000005544500041542B434950535400
:1004D0004152543D25642C257300000041542B43A8
:1004E000495053544152543D25730000434F4E4EE2
:1004F000454354004F4B000010B5044624B1012C75
:100500000AD0022C18D10FE040F6C4130BA20EA1A2
:100510000EA0FFF719FF10BD40F6C41307A20AA1F1
:100520000DA0FFF711FFF6E740F6C41303A206A1E2
:100530000CA0FFF709FFEEE70020ECE76E6F2063E9
:1005400068616E67650000004F4B000041542B430B
:10055000574D4F44453D310041542B43574D4F4477
:10056000453D320041542B43574D4F44453D3300E8
:1005700010B50121054800F09AF84FF4FA7001F027
:1005800006F80121014800F094F810BD000802406F
:1005900010B500244FF4FA63002209A109A0FFF767
:1005A000D3FE00BF05E00B49085D00F0A5F9601C13
:1005B000C4B2182CF7DB4FF4FA7000F0E8FF10BD5E
:1005C0003E00000041542B43495053454E443D32B8
:1005D0003400000047000020F0B50A460021002347
:1005E000002400BF3DE0012505FA01F3156805EA86
:1005F00003049C4234D105684F000326BE40B54336
:10060000056015794E00B5400668354305601579DB
:10061000012D02D01579022D16D185684F000326D1
:10062000BE40B543856055794E00B5408668354378
:100630008560456801268E40B543456045689679DA
:100640008E40B6B235434560C5684F000326BE40B4
:10065000B543C560D5794E00B540C6683543C56021
:10066000491C1029BFD3F0BDF0B5002300244D076D
:10067000ED0E02FA05F3CE1000F1200555F82650D4
:100680004E07F70E0F26BE40B543CF1000F12006EF
:1006900046F82750CE1000F1200555F8265045EABF
:1006A0000304CE1000F1200545F82640F0BD41833B
:1006B00070470183704700BFFEE700001CB50121B1
:1006C000202000F073F801208DF804004002009013
:1006D00003208DF8050000208DF8060001208DF81C
:1006E000070069460A48FFF777FF4FF40071084892
:1006F000FFF7DFFF4FF48060009069460448FFF782
:100700006BFF4FF480610248FFF7D3FF1CBD000070
:100710000014024000BFFEE77047000070B50021E2
:1007200000230F22C4781CB3174C246804F4E0643F
:10073000C4F5E064C4F30721C1F10404E3B20A4143
:1007400044789C40E1B28478144021430C07210E88
:100750000E4C05786155047804F01F050124AC4067
:1007600005786D11AD0005F1E025C5F8004109E0FF
:10077000047804F01F050124AC40054D067876117D
:1007800045F8264070BD00000CED00E000E400E0FC
:1007900080E100E002490143024A11607047000015
:1007A0000000FA050CED00E07047000029B1064A90
:1007B00012680243044B1A6004E0034A1268824341
:1007C000014B1A60704700003038024029B1064AD8
:1007D00012680243044B1A6004E0034A1268824321
:1007E000014B1A60704700004038024029B1064AA8
:1007F00012680243044B1A6004E0034A1268824301
:10080000014B1A607047000044380240F0B50021E7
:1008100000220024022500260223324F3F6807F001
:100820000C0121B1042905D0082937D105E02E4F4C
:10083000076036E02D4F076033E02A4F3F1F3F68C7
:10084000C7F38056274F3F1F3F6807F03F036EB145
:10085000264FB7FBF3F7DFF88CC0ACF1040CDCF8E3
:1008600000C0CCF3881C07FB0CF40CE01E4FB7FB58
:10087000F3F7DFF870C0ACF1040CDCF800C0CCF387
:10088000881C07FB0CF4174F3F1F3F68C7F3014755
:100890007F1C7D00B4FBF5F7076002E0124F076094
:1008A00000BF00BF0F4F3F6807F0F0010909104F6C
:1008B0007A5C0768D74047600A4F3F6807F4E05109
:1008C000890A0B4F7A5C4768D7408760054F3F68BD
:1008D00007F46041490B064F7A5C4768D740C76010
:1008E000F0BD0000083802400024F40000127A0035
:1008F0005F0000207047000010B5044621460548FF
:1009000000F0A3FC00BF8021024800F0D2FB0028C9
:10091000F9D010BD004800400CB5002001900090B7
:100920003448006840F480303249086000BF3148E4
:10093000006800F4003000900198401C019000987D
:1009400018B90198B0F5A04FF1D12A48006800F419
:10095000003010B10120009001E0002000900098CC
:10096000012846D123484030006840F0805021499A
:10097000403108602048006840F440401E4908604B
:100980001C48083000681B490831086008460068A8
:1009900040F4004008600846006840F4A050086039
:1009A0001648091F0860081F006840F08070091F82
:1009B000086000BF0F48006800F000700028F9D000
:1009C00040F205700E4908600A480830006820F0BF
:1009D00003000849083108600846006840F002003A
:1009E000086000BF03480830006800F00C000828C9
:1009F000F8D10CBD00380240007000400854400798
:100A0000003C0240042808D14FF0E021096941F080
:100A100004014FF0E022116107E04FF0E021096985
:100A200021F004014FF0E02211617047704700008F
:100A300010B504466FF00400FFF7E4FFE11704EB84
:100A40005171C1F3C701074A11701046007800EBDD
:100A50004001C1EBC0104FF6FF7101EAC00002492E
:100A6000088010BD700000207200002010B51548ED
:100A7000006840F47000134908601348006840F0B3
:100A800001001149086000200F49083108600E4834
:100A900000680E4908400C4908600D48091D0860AF
:100AA000081F006820F48020091F08600020064904
:100AB0000C310860FFF730FF4FF0006001498039CA
:100AC000086010BD88ED00E000380240FFFFF6FE30
:100AD0001030002410B501210C4800F05CF8A0B1E2
:100AE00001210A4800F048F809480088401C0849DC
:100AF00008800846008840F6B831884205DB0020AF
:100B00000349088001200349087010BD0008004017
:100B100000000020100000201FB501210420FFF775
:100B200055FE40F2E73002905320ADF8040000205B
:100B3000ADF80C00ADF8060001A90E4800F046F82B
:100B4000012211460B4800F037F81E208DF80000F6
:100B500001208DF8010000208DF8020001208DF8A1
:100B600003006846FFF7DAFD0121024800F007F8AC
:100B70001FBD000000080040CA430282704721B137
:100B8000028842F00102028004E002884FF6FE7300
:100B90001A400280704730B502460020002300242E
:100BA000158A05EA0103958905EA010413B10CB120
:100BB000012000E0002030BD1AB183890B438381FE
:100BC00002E083898B438381704700000022028802
:100BD000184B98420ED0184B98420BD0B0F1804F72
:100BE00008D0164B984205D0154B984202D0154BB1
:100BF000984204D14FF68F731A404B881A43124B18
:100C0000984207D0114B984204D04FF6FF431A4048
:100C10000B891A4302804B68C3620B880385054B1E
:100C2000984202D0044B984201D18B7A038601236B
:100C3000838270470000014000040140000400402E
:100C400000080040000C004000100040001400406C
:100C500010B540F225511D4800F038FA10B31B487A
:100C600000F0EEFAC4B21A48008800F40040C8B997
:100C70001748008800F4804060B10A2C03D000209F
:100C80001349088020E01248008840F400401049D1
:100C9000088019E00D2C06D10D48008840F48040F2
:100CA0000B49088010E00A480088C0F30D0009498C
:100CB0000C5407480088401C0549088008460088F5
:100CC000C72801DD0020088010BD00000010014091
:100CD000740000207C00002010B586B0044601217D
:100CE0000846FFF763FD01211020FFF77FFD072273
:100CF00009211848FFF7B8FC07220A211548FFF719
:100D0000B3FC4FF4C060049002208DF814008DF8FD
:100D1000150000208DF8160001208DF8170004A999
:100D20000C48FFF759FC00940020ADF80400ADF822
:100D30000600ADF80800ADF80C000C20ADF80A0074
:100D40006946054800F012FA0121034800F0A5F9B0
:100D500006B010BD000002400010014010B540F286
:100D60002551834800F0B2F900283CD0804800F0BB
:100D700067FAC4B27F48B0F80004C0F30E0040F236
:100D8000FF3188420EDA7B49B1F80014C1F30E003E
:100D9000411C784AB2F8002461F30E027549A1F8AB
:100DA00000240C54744840787349087008468078D1
:100DB00048700846C07888700846C4700078462895
:100DC0002CD108464078442828D10846807830281D
:100DD0000AD10846C078302806D10120674908703A
:100DE000002067490870ACE063488078302809D15A
:100DF0006148C078312805D10120604908706049F8
:100E000008709EE05C4880783028ECD15A48C07861
:100E10003228E8D100205949087092E056480078FD
:100E2000462820D15448407874281CD152488078F4
:100E3000302817DB50488078392813DC4E48C078BA
:100E400030287EDB4C48C07839287ADC4A48C078A4
:100E5000303849498978303901EB810100EB410094
:100E6000484908706DE044480078462820D142483F
:100E7000407868281CD140488078302861DB3E48A3
:100E8000807839285DDC3C48C078302859DB3A4806
:100E9000C078392855DC3848C078303836498978E8
:100EA000303901EB810100EB41003749087048E01F
:100EB00031480078462820D12F48407867281CD137
:100EC0002D48807830283CDB2B488078392838DC66
:100ED0002948C078302834DB2748C078392830DCEE
:100EE0002548C078303824498978303901EB8101B0
:100EF00000EB41002549087023E01F480078462890
:100F00001FD11D48407870281BD11B48807830289D
:100F100017DB19488078392813DC1748C078302847
:100F20000FDB1548C07839280BDC1348C0783038FF
:100F300011498978303901EB810100EB41001449F6
:100F4000087040F224410A4800F0C0F801280ED190
:100F50000848B0F8000420F4004000F500400549BE
:100F6000A1F80004024800F06BF9C4B200BF10BD44
:100F7000004800404401002014000020130000201D
:100F8000110000200C0000200D0000200E000020A9
:100F90000F0000200FB470B586B006460CA8019073
:100FA00073E00B9800785C281CD10B98401C0B90C8
:100FB00000786E2809D072280FD10D21304600F03C
:100FC00044F90B98401C0B900BE00A21304600F0CE
:100FD0003CF90B98401C0B9003E00B98401C0B90C5
:100FE00000BF4BE00B980078252840D10B98401C9F
:100FF0000B900078642818D0732833D1019810C85A
:1010000001900BE02178304600F01FF900BF8021ED
:10101000304600F04EF80028F9D0641C20780028F3
:10102000F0D10B98401C0B9020E0019820C8019053
:101030000A2202A9284600F0FFFA02AC0BE0217850
:10104000304600F002F900BF8021304600F031F850
:101050000028F9D0641C20780028F0D10B98401C9F
:101060000B9003E00B98401C0B9000BF06E00B9820
:1010700010F8011B0B90304600F0E7F800BF80210C
:10108000304600F016F80028F9D00B9800780028B8
:1010900087D106B070BC5DF814FB21B1828942F49F
:1010A0000052828104E082894DF6FF731A408281EA
:1010B000704702460020B1F5007F00D100BF1388C1
:1010C0000B400BB1012000E00020704770B50246D4
:1010D000002400230025002040F66A16B14200D10A
:1010E00000BFC1F3421501F01F03012606FA03F306
:1010F000012D02D19689334006E0022D02D1168AD5
:10110000334001E0968A33400C12012606FA04F4BB
:101110001688344013B10CB1012000E0002070BDEE
:10112000F0B50346002400260025002040F66A178B
:10113000B94200D100BF1846C1F3421401F01F06A6
:10114000012707FA06F5012C01D10C3004E0022C2E
:1011500001D1103000E014301AB107682F43076046
:1011600002E00768AF430760F0BD00002DE9FF47CC
:1011700005460E460024A14600BFA046B08900B136
:1011800000BF2C8A24F44054F08804432C82AC899C
:1011900041F20C608443B088318908437189084367
:1011A0000443AC81AC8A24F44074B0890443AC821B
:1011B0006846FFF72BFB2048854202D01F48854236
:1011C00002D1DDF80C9001E0DDF80890A88900F468
:1011D000004040B109EBC90000EB0910316849003B
:1011E000B0FBF1F707E009EBC90000EB091031682B
:1011F0008900B0FBF1F76420B7FBF0F0040120098F
:10120000642101FB1078A88900F4004040B132202D
:1012100000EBC800B0FBF1F000F00700044308E069
:10122000322000EB08106421B0FBF1F000F00F0059
:1012300004432C81BDE8FF870010014000140140E9
:1012400001468888C0F308007047C1F30802828015
:10125000704700BFFEE7000000B587B00121880499
:10126000FFF7B4FA01210220FFF7A0FA01212420A0
:10127000FFF79CFA4020059001208DF8180000200F
:101280008DF81A0003208DF8190001208DF81B003D
:1012900005A93048FFF7A0F940212E48FFF707FACB
:1012A0000120059005A92C48FFF796F901212A484D
:1012B000FFF7FFF907220A212848FFF7D5F907228F
:1012C0000B212648FFF7D0F94FF44060059002202B
:1012D0008DF818008DF8190000208DF81A000120F3
:1012E0008DF81B0005A91D48FFF776F94FF4E13092
:1012F00001900020ADF80800ADF80A00ADF80C0030
:10130000ADF810000C20ADF80E0001A91448FFF74D
:101310002DFF012240F225511148FFF701FF012264
:1013200040F224410E48FFF7FBFE01210C48FFF775
:10133000B4FE27208DF8000000208DF801008DF804
:10134000020001208DF803006846FFF7E7F907B0B7
:1013500000BD0000001402400008024000040240EA
:10136000004800400FB4054B10B503A9044A029889
:1013700000F02CF810BC5DF814FB000015160008F6
:10138000780000200FB4084B10B504A902AA0398F6
:1013900000F01CF8044602A9002000F0F3F82046F3
:1013A00010BC5DF814FB00008515000802E008C8B9
:1013B000121F08C1002AFAD170477047002001E0CF
:1013C00001C1121F002AFBD1704700002DE9FF4F19
:1013D0008BB09A460F460546002606E025280BD01E
:1013E00052460D9990476D1C761C28780028F5D13F
:1013F0000FB03046BDE8F08F0024A04601226049BE
:1014000000E0044315F8013F203B02FA03F00842D4
:10141000F7D128782E2817D115F8010F44F00404CD
:101420002A280ED06FF02F022878A0F13001092968
:101430000AD808EB880102EB410100EB01086D1CA2
:10144000F2E757F8048B6D1C287869283ED006DC3B
:101450000028CDD063280BD0642804D136E073284F
:1014600010D075284BD052460D999047761C85E0D8
:1014700017F8040B8DF8000000208DF80100E946F4
:10148000012003E057F8049B4FF0FF3061074FF055
:10149000000401D40AE0641C44450DDA8442FADBFE
:1014A00019F804100029F6D106E0641C8442FCDB24
:1014B00019F804100029F8D1264404E019F8010BAA
:1014C00052460D999047641EF8D257E001CF4FF075
:1014D0000A0B002802DA40422D2102E0210504D542
:1014E0002B218DF82410012103E0E10705D02021F4
:1014F000F7E70DF1200908910CE00021F9E701CF91
:101500004FF00A0BF9E75946FEF77EFE01F1300273
:1015100009F8012D0028F6D1ADEB090000F1200BF0
:10152000600701D44FF00108D84502DDA8EB0B009D
:1015300000E000208046002406E009A85246005D35
:101540000D999047641C761C08988442F5DB04E0F2
:10155000302052460D999047761CB8F10001A8F151
:101560000108F5DC05E019F8010B52460D9990478A
:10157000761CBBF10001ABF1010BF4DC6D1C34E710
:10158000092801000A68531C0B601070704770B581
:1015900004464FF4077094FBF0F0C6B24FF40770A6
:1015A00094FBF0F100FB114085B205E04FF40770A9
:1015B00000F00AF8701EC6B2002EF7D115B1284609
:1015C00000F002F870BD00000146114A12884A433B
:1015D0004FF0E0235A6100229A611A46126942F0E4
:1015E00001021A6100BF4FF0E022106900F0010211
:1015F0001AB100F48032002AF5D04FF0E0221269CF
:1016000022F001024FF0E0231A6100229A61704734
:101610007200002070B504460D46E1B20548FFF7A0
:1016200014FE00BF80210348FFF743FD0028F9D0D6
:10163000204670BD00100140F0B503460D46164629
:10164000002729460A2E03D0002008702846F0BD46
:1016500033B9302001F8010B002008702846F6E766
:10166000002B03DA2D2001F8010B5B4242F21072CD
:101670000DE093FBF2F404B937B104F1300001F846
:10168000010B04FB123301270A2092FBF0F2002A1F
:10169000EFDC002008702846D9E70000A820FFF7FB
:1016A000C7F94FF4A060FFF775F84FF4E130FFF78A
:1016B00013FBFFF703F8FFF7CFFDFFF72DFA4FF409
:1016C0007A70FFF764FF0120FEF72EFEFEF710FE92
:1016D00003E04FF4FA70FFF75AFF0020FEF70CFF0B
:1016E0000028F6D003E04FF47A70FFF750FF39A1DD
:1016F0003BA0FEF785FE0028F5D04FF4FA60FFF717
:1017000046FF03E04FF47A70FFF741FF052336A24E
:1017100037A10020FEF794FE0028F3D04FF4FA60C2
:10172000FFF735FFFEF79CFD4FF4FA60FFF72FFF40
:10173000FEF7BAFD4FF4FA60FFF729FF49E01E20DB
:101740002F4908703C202F4908705A202E490870F4
:1017500000202E4908802E48007868B92A48007871
:101760002C490978884203DA01202B49087007E0E8
:1017700000202949087003E02848007826490870AD
:1017800025480078012803D100202549086002E09F
:101790000120234908601A480078224988721948B4
:1017A0000078C872184800780873184800784873A1
:1017B00019480078887316480078C87300200874A8
:1017C00019480078012804D1002017490870FEF755
:1017D000DFFEB4E731323331323331320000000002
:1017E00077696E32000000003138383300000000A5
:1017F0003139322E3136382E3132332E393900001C
:101800000600002007000020080000200A00002039
:10181000130000200E000020120000201100002004
:10182000A882424247000020100000204C18000807
:10183000000000207C000000AC130008C81800085D
:101840007C000020CC080000BC1300080000000051
:1018500000000000000000002850321400000001C9
:1018600000000000102300044D51545404C00078BF
:10187000000A3130313432333831393500063535EC
:101880003537393800036D63758208000200036143
:10189000707000301600036D6375060606000000C8
:1018A0000000000000000000000000000000000137
:1018B00002030401020304060708090000000000F7
:0818C000000000000000000020
:040000050800018965
:00000001FF
